:020000040800F2
:10000000D80600209D0100087F0700085D02000857
:100010007D07000859020008030B000800000000DB
:10002000000000000000000000000000090A0008B5
:100030005B02000800000000810700080B0A0008AE
:10004000B7010008B7010008B7010008B7010008B0
:10005000B7010008B7010008B7010008B7010008A0
:10006000B7010008B7010008B7010008B701000890
:10007000B7010008B7010008B7010008B701000880
:10008000B7010008B7010008B7010008B701000870
:10009000B7010008B7010008B7010008B701000860
:1000A000B7010008B7010008B7010008B701000850
:1000B000B7010008B7010008B7010008B701000840
:1000C000B7010008B7010008B7010008B701000830
:1000D000B7010008010B0008B7010008B7010008CC
:1000E000B7010008B7010008B7010008B701000810
:1000F000B7010008B7010008B7010008B701000800
:10010000B7010008B7010008B7010008B7010008EF
:10011000B7010008B7010008B7010008B7010008DF
:10012000B7010008B7010008B7010008B7010008CF
:10013000B7010008B7010008B7010008B7010008BF
:10014000B7010008B7010008B7010008B7010008AF
:10015000B7010008B7010008B7010008B70100089F
:10016000B7010008B7010008B7010008B70100088F
:10017000B7010008B70100080000000000000000FF
:10018000B7010008B7010008DFF80CD000F052F802
:10019000004800471D0D0008D8060020064880478B
:1001A00006480047FEE7FEE7FEE7FEE7FEE7FEE75C
:1001B000FEE7FEE7FEE7FEE7C50A00088901000842
:1001C00040EA01039B0703D009E008C9121F08C0D9
:1001D000042AFAD203E011F8013B00F8013B521E59
:1001E000F9D27047D2B201E000F8012B491EFBD2D0
:1001F00070470022F6E710B513460A460446194632
:10020000FFF7F0FF204610BD30B50B460146002039
:100210002022012409E021FA02F59D4205D303FAC8
:1002200002F5491B04FA02F52844151EA2F1010249
:10023000F1DC30BD064C074D06E0E06840F00103FC
:1002400094E8070098471034AC42F6D3FFF7A0FFBC
:10025000F00F000810100008FEE77047FEE70000EE
:10026000044908B5CA6C0243CA64C96C01400091D4
:1002700008BD000000100240F0B50A680F2692FA8F
:10028000A2F2B2FA82F303248AE001259D402A40BB
:100290007ED04D68012D01D0022D20D18D68876858
:1002A00092FAA2FCBCFA8CFC4FEA4C0E04FA0EFC4B
:1002B00027EA0C0792FAA2FCBCFA8CFC4FEA4C0C21
:1002C00005FA0CF52F438760CF680D68D0F804C09D
:1002D0002CEA050C7D434CEA050CC0F804C00F69FC
:1002E000D0F80CC092FAA2F5B5FA85F54FEA450EA2
:1002F00004FA0EF52CEA050C92FAA2F5B5FA85F58A
:100300006D00AF404CEA070CC0F80CC04D68022DE0
:100310002FD1FF2A15D8D1F814C0056A92FAA2F796
:10032000B7FA87F7BF0006FA07F7BD4392FAA2F7BC
:10033000B7FA87F7BF000CFA07FC45EA0C0505621F
:1003400017E0D1F814E0476A150A95FAA5FCBCFA43
:100350008CFC4FEA8C0C06FA0CFC95FAA5F5B5FA64
:1003600085F5AD0027EA0C070EFA05FE47EA0E07F1
:1003700047624D68076892FAA2FCBCFA8CFC4FEA0F
:100380004C0C04FA0CFE27EA0E0792FAA2F200E0E7
:1003900005E0B2FA82F2520095402F4307605B1CE1
:1003A0000A6832FA03F57FF470AF0020F0BD4FF415
:1003B0007A71B0FBF1F14FF0E020491E416100215C
:1003C000816105210161704770B500242249234DE8
:1003D0004FF40046C02803D0B0F5407F1ED02FE078
:1003E000D1F8880000F0C00040F44000B0F5400FA4
:1003F0002BD04038B0F5400024D0402802D08028CF
:100400001ED104E000F094F8D0B12C4618E000F0C2
:1004100097F8A8B1344613E0044611E0D1F88800FB
:1004200000F4407040F04070B0F1407F0DD00C49B6
:10043000401807D0B0F5807FE4D0B0F5007FE6D05B
:10044000204670BD00F060FAE6E700F05DFA00F0CB
:1004500031FA00F03DFADFE7001002400024F4001A
:1004600000FFFFFC70B500242F49304D4FF40046CB
:10047000032804D00C281ED0302837D034E0D1F81F
:10048000880000F0030040F44030B0F5403F0BD04E
:100490006FF44031401804D001283ED0022823D107
:1004A00035E000F031FA1EE000F02EFA00F002FA1A
:1004B00000F01CFA17E0D1F8880000F00C0040F4BE
:1004C0004020B0F5402F08D0001FB0F54020E8D004
:1004D000042822D0082807D119E000F015FA00F00E
:1004E000E9F900F0F5F90446204670BDD1F888001E
:1004F00000F0300040F44010B0F5401FEDD010384F
:10050000B0F54010CDD0102807D02028ECD100F055
:1005100017F80028E8D03446E6E700F009F800288C
:10052000E2D02C46E0E70000001002400024F40076
:1005300002480068C0F380207047000000100240AD
:100540000248D0F89000C0F340007047001002400D
:100550000248006800F0F000704700000010024000
:100560000248D0F8940000F4706070470010024018
:1005700002480068C0F3C00070470000001002404D
:100580000248C06800F07000704700000010024090
:100590000248C06800F003007047000000100240ED
:1005A00001490860704700000800002070B504464B
:1005B00000680D46012610F0010F42D1E968686815
:1005C000AA6908432969114308432168254A114053
:1005D00008432060A868616821F4405101436160CC
:1005E0006869A16821F440710143A1601E488442FA
:1005F00001D1032008E01D48844201D10C2003E012
:100600001B48844203D13020FFF72CFF0BE0194830
:10061000844201D1C02004E01748844211D14FF434
:100620004070FFF7D1FE60B1296851B1AA69002678
:10063000B2F5004F07D000EB5100B0FBF1F080B2F3
:10064000E060304670BD400000EB5100B0FBF1F0BF
:1006500081B24FF6F07201EA0200C1F34201084391
:10066000EEE70000F369FFEF00380140004400406E
:1006700000480040004C00400050004010B50420ED
:10068000FFF7EEFD8020FFF7EBFDBDE810400120F5
:10069000FFF7E6BD10B58EB01C216846FFF7A9FD37
:1006A000182107A8FFF7A5FD304850F8881F00243F
:1006B00021F0030140F83C19416941F48041416156
:1006C000416901F480410D91016841F0010101602F
:1006D000006807A900F001000D904FF4C06007907A
:1006E000022008900320CDE909040720CDE90B4042
:1006F0004FF09040FFF7C0FD1D480068C0F3022096
:10070000011D072901D2002000E0C01E04FA00F1FB
:100710000801184981F80004164920202139C1F840
:1007200000014FF4E130CDE900040C200294CDE942
:10073000034005940694104C69462046FFF736FFA7
:10074000606820F490406060A06820F02A00A060FB
:10075000206840F001002060206840F02000206008
:10076000206840F4807020600EB010BD0010024080
:100770000CED00E025E000E000380140FEE7FEE778
:10078000704770B50E46040017D0B6B104FB06F5ED
:1007900005F1180000F056FB00280DD000F11801FB
:1007A000048246824A19C0E9001200228282641E35
:1007B000816004FB0611C16070BD002070BD10B5E2
:1007C000040008D039B1022A01D0012A03D1A08A3D
:1007D000238A984201D9002010BD022A02D0012AA2
:1007E0000ED01EE0628AA068FFF7EAFC618AA0686A
:1007F0000844A0606168884210D32068A0600DE0C2
:10080000628AE068FFF7DCFC608AE168091AE1604F
:100810002268914202D26168081AE060A08A401CF6
:10082000A082012010BD70B50B46040013D093B117
:10083000A08A00280ED0628AE568A818E060616886
:10084000884201D32068E06001461846FFF7B8FCF3
:100850000120E56070BD002070BD10B50B4604009E
:1008600015D0A3B1A08A002810D0628AE068104495
:10087000E0606168884201D32068E0600146184664
:10088000FFF79EFCA08A401EA082012010BD002020
:1008900010BD000008B5002200928DF80000044849
:1008A000ADF80210022269464068FFF788FF08BDD4
:1008B0000000002004498968044A01F0F001090998
:1008C000515CC8407047000000100240A80F0008AB
:1008D00004498968044A01F4E06102EB11210978B6
:1008E000C840704700100240E80F000804498968BA
:1008F000044A01F4605102EBD1210978C8407047E5
:1009000000100240E80F0008184810B58068184C25
:1009100010F00C0005D004281AD008281AD00C2892
:100920001AD0FFF725FED8B1FFF722FE50B1FFF72E
:100930000FFE09E0FFF70CFE02E000BFFFF710FE1C
:10094000000A02E0FFF70CFE000954F8200010BD79
:10095000084810BD084810BDBDE8104000F00EB8B2
:10096000FFF706FE0028E9D0E4E70000001002408F
:10097000B80F00080024F40000127A0010B5FFF749
:1009800007FE1D4C012803D002282AD003282AD0B4
:10099000FFF7EEFD28B1FFF7EBFD48B3FFF7D8FDF9
:1009A00006E0FFF7E5FD00B3FFF7D2FD000A00E027
:1009B000000954F8204000BFFFF7E2FD012101EBE0
:1009C0001010B4FBF0F20D48C368C068C3F30623EF
:1009D0005A4300F0C06001EB50604000B2FBF0F001
:1009E00010BD074CE8E7074CE6E7FFF7B9FDDDE788
:1009F000FFF7B6FDDCE70000B80F0008001002406A
:100A00000024F40000127A00704700F051BA000090
:100A1000274810B5016821F0070141F00401016089
:100A2000016801F007010429FAD12248016821F484
:100A3000C06141F4007101601F48016841F48031D8
:100A400001600168C1F340410029FAD0C26841F257
:100A500003411A4B1A401143C160C16841F08071D3
:100A6000C160016841F0807101600168C1F34061BB
:100A70000029FAD0816841F003018160816801F0AA
:100A80000C010C29FAD1816821F0F00181608168A4
:100A900021F4E0618160816821F460518160084C3B
:100AA0002046FFF784FC2046BDE81040FFF778BDE4
:100AB0000020024000700040001002408C80FFF9CE
:100AC00000B4C4040B48016841F4700101600A4895
:100AD000016841F001010160002181600268074B5B
:100AE0001A4002608214C260026822F4802202600E
:100AF0008161704788ED00E000100240FFFFF6EAD8
:100B00007047FEE70FB4054B10B503A9044A0298DD
:100B100000F018F810BC5DF814FB0000050D00088B
:100B20000C00002002E008C8121F08C1002AFAD1F8
:100B300070477047002001E001C1121F002AFBD15D
:100B4000704700002DE9FF4F8BB09A460F460546CF
:100B5000002606E025280BD052460D9990476D1CC3
:100B6000761C28780028F5D10FB0304600F0C6B8C2
:100B70000024A0460122604900E0044315F8013F2B
:100B8000203B02FA03F00842F7D128782E2817D12B
:100B900015F8010F44F004042A280ED06FF02F023C
:100BA0002878A0F1300109290AD808EB880102EB66
:100BB000410100EB01086D1CF2E757F8048B6D1C36
:100BC000287869283ED006DC0028CDD063280BD0D9
:100BD000642804D136E0732810D075284BD05246D3
:100BE0000D999047761C85E017F8040B8DF80000EE
:100BF00000208DF80100E946012003E057F8049B2E
:100C00004FF0FF3061074FF0000401D40AE0641C8C
:100C100044450DDA8442FADB19F804100029F6D1B4
:100C200006E0641C8442FCDB19F804100029F8D1AA
:100C3000264404E019F8010B52460D999047641EB2
:100C4000F8D257E001CF4FF00A0B002802DA4042F9
:100C50002D2102E0210504D52B218DF8241001213E
:100C600003E0E10705D02021F7E70DF12009089105
:100C70000CE00021F9E701CF4FF00A0BF9E75946E4
:100C8000FFF7C2FA01F1300209F8012D0028F6D170
:100C9000ADEB090000F1200B600701D44FF0010813
:100CA000D84502DDA8EB0B0000E0002080460024C0
:100CB00006E009A85246005D0D999047641C761C19
:100CC00008988442F5DB04E0302052460D999047A5
:100CD000761CB8F10001A8F10108F5DC05E019F86F
:100CE000010B52460D999047761CBBF10001ABF108
:100CF000010BF4DC6D1C34E70928010030BCBDE8B1
:100D0000C08F00000449CA69C2F38012002AFAD0D9
:100D1000C2B20A85704700000038014008B5324869
:100D2000016E41F001010166016E01F001010091C7
:100D3000816D41F080518165806D00F080500090A0
:100D40002A4801684FF6FF021140294A41F44071D8
:100D5000114301600068C0F30220C0F10702042AB9
:100D600000D90422011D072901D2002000E0C01E85
:100D700001219140491E814008011E4981F8140D4E
:100D8000FFF746FE4FF0E020016941F002010161EA
:100D9000FFF774FCFFF77EFC17A0FFF7B3FE0421FA
:100DA0000820FFF7EEFC194D194A4FF47A7168607C
:100DB000012000F0B3F800F0DBF82C461349686816
:100DC000FFF731FD20B16288217812A0FFF79AFE6B
:100DD0000E496868FFF741FD0028EFD0628821784E
:100DE00012A0FFF78FFEE9E7001002400CED00E0D3
:100DF0000000FA050FE000E0496E697420436F6D52
:100E0000706C657465210D0A000000000000002070
:100E10009508000851756575655065656B203A2029
:100E200020202025642C2025640A0000517565755A
:100E30006552656365697665203A2025642C202516
:100E4000640A0000F0B50B30154D20F007010024B6
:100E5000144A0FE003688B420BD38B4205D95E1A0C
:100E600043184768C3E9006700E04368136002C0A5
:100E700004E0021D10680028ECD12046002802D1B1
:100E8000286808B10020F0BD064A07481060074AEC
:100E9000121A22F00702C0E9002401202860D7E7D7
:100EA0001400002010000020DC000020D8020020E8
:100EB00070B5194D002400BF04EB440005EB80021F
:100EC000507810F00C0F21D05088401C5080508872
:100ED000918888421AD350788007507804D000F067
:100EE0000300012804D005E020F00C00507001E060
:100EF00000205080906820B19188926820469047E9
:100F000004E0507820F0C00040305070641CE4B21F
:100F1000102CD1D370BD00001800002030B504465D
:100F2000124B002000EB400503EB85056D78C5F3FF
:100F30000115012D13D000EB400503EB85035D780F
:100F400064F301055D7099809A60597821F0300151
:100F500010315970597821F0C001597030BD401CD2
:100F6000C0B21028DED3FF2030BD000018000020E2
:100F7000102815D800EB40010A4800EB81004178A9
:100F8000C1F3011101290BD14178C1F3810101297C
:100F900006D0417821F00C01091D417000207047F6
:100FA0000120704718000020000000000000000031
:100FB0000102030406070809A0860100400D030092
:100FC000801A060000350C0040420F0080841E008D
:100FD00000093D0000127A000024F40000366E0182
:100FE0000048E801006CDC0200000000010203047C
:100FF000101000080000002018000000240B00085A
:101000002810000818000020C0060000340B00085B
:10101000000000000000000000093D00000000008A
:081020000000000000000000C8
:040000050800018965
:00000001FF
