:020000040800F2
:10000000C80400209D0100085B07000839020008B1
:100010005907000835020008AF0900080000000079
:10002000000000000000000000000000B50800080B
:1000300037020008000000005D070008B70800084C
:10004000B7010008B7010008B7010008B7010008B0
:10005000B7010008B7010008B7010008B7010008A0
:10006000B7010008B7010008B7010008B701000890
:10007000B7010008B7010008B7010008B701000880
:10008000B7010008B7010008B7010008B701000870
:10009000B7010008B7010008B7010008B701000860
:1000A000B7010008B7010008B7010008B701000850
:1000B000B7010008B7010008B7010008B701000840
:1000C000B7010008B7010008B7010008B701000830
:1000D000B7010008AD090008B7010008B701000822
:1000E000B7010008B7010008B7010008B701000810
:1000F000B7010008B7010008B7010008B701000800
:10010000B7010008B7010008B7010008B7010008EF
:10011000B7010008B7010008B7010008B7010008DF
:10012000B7010008B7010008B7010008B7010008CF
:10013000B7010008B7010008B7010008B7010008BF
:10014000B7010008B7010008B7010008B7010008AF
:10015000B7010008B7010008B7010008B70100089F
:10016000B7010008B7010008B7010008B70100088F
:10017000B7010008B70100080000000000000000FF
:10018000B7010008B7010008DFF80CD000F040F814
:1001900000480047C90B0008C804002006488047F3
:1001A00006480047FEE7FEE7FEE7FEE7FEE7FEE75C
:1001B000FEE7FEE7FEE7FEE7710900088901000897
:1001C000D2B201E000F8012B491EFBD27047002299
:1001D000F6E710B513460A4604461946FFF7F0FF46
:1001E000204610BD30B50B460146002020220124D8
:1001F00009E021FA02F59D4205D303FA02F5491BF5
:1002000004FA02F52844151EA2F10102F1DC30BD0A
:10021000064C074D06E0E06840F0010394E8070053
:1002200098471034AC42F6D3FFF7B2FF9C0E00089B
:10023000BC0E0008FEE77047FEE70000044908B561
:10024000CA6C0243CA64C96C0140009108BD000039
:1002500000100240F0B50A680F2692FAA2F2B2FA34
:1002600082F303248AE001259D402A407ED04D6818
:10027000012D01D0022D20D18D68876892FAA2FC51
:10028000BCFA8CFC4FEA4C0E04FA0EFC27EA0C0771
:1002900092FAA2FCBCFA8CFC4FEA4C0C05FA0CF565
:1002A0002F438760CF680D68D0F804C02CEA050C96
:1002B0007D434CEA050CC0F804C00F69D0F80CC0AF
:1002C00092FAA2F5B5FA85F54FEA450E04FA0EF555
:1002D0002CEA050C92FAA2F5B5FA85F56D00AF404F
:1002E0004CEA070CC0F80CC04D68022D2FD1FF2A34
:1002F00015D8D1F814C0056A92FAA2F7B7FA87F7B1
:10030000BF0006FA07F7BD4392FAA2F7B7FA87F7DC
:10031000BF000CFA07FC45EA0C05056217E0D1F8AE
:1003200014E0476A150A95FAA5FCBCFA8CFC4FEA62
:100330008C0C06FA0CFC95FAA5F5B5FA85F5AD001E
:1003400027EA0C070EFA05FE47EA0E0747624D68DA
:10035000076892FAA2FCBCFA8CFC4FEA4C0C04FA37
:100360000CFE27EA0E0792FAA2F200E005E0B2FACC
:1003700082F2520095402F4307605B1C0A6832FAF4
:1003800003F57FF470AF0020F0BD4FF47A71B0FB3D
:10039000F1F14FF0E020491E41610021816105210A
:1003A0000161704770B500242249234D4FF4004687
:1003B000C02803D0B0F5407F1ED02FE0D1F88800D0
:1003C00000F0C00040F44000B0F5400F2BD04038A2
:1003D000B0F5400024D0402802D080281ED104E08F
:1003E00000F094F8D0B12C4618E000F097F8A8B1CE
:1003F000344613E0044611E0D1F8880000F4407060
:1004000040F04070B0F1407F0DD00C49401807D04B
:10041000B0F5807FE4D0B0F5007FE6D0204670BD17
:1004200000F0C8F9E6E700F0C5F900F099F900F02E
:10043000A5F9DFE7001002400024F40000FFFFFCF4
:1004400070B500242F49304D4FF40046032804D0E6
:100450000C281ED0302837D034E0D1F8880000F0C6
:10046000030040F44030B0F5403F0BD06FF4403112
:10047000401804D001283ED0022823D135E000F0F6
:1004800099F91EE000F096F900F06AF900F084F99D
:1004900017E0D1F8880000F00C0040F44020B0F5DF
:1004A000402F08D0001FB0F54020E8D0042822D00B
:1004B000082807D119E000F07DF900F051F900F0AB
:1004C0005DF90446204670BDD1F8880000F0300088
:1004D00040F44010B0F5401FEDD01038B0F540109A
:1004E000CDD0102807D02028ECD100F017F8002834
:1004F000E8D03446E6E700F009F80028E2D02C46C0
:10050000E0E70000001002400024F4000248006808
:10051000C0F3802070470000001002400248D0F86D
:100520009000C0F34000704700100240024800688D
:1005300000F0F00070470000001002400248D0F8C0
:10054000940000F470607047001002400248006898
:10055000C0F3C00070470000001002400248C068AD
:1005600000F0700070470000001002400248C068B0
:1005700000F00300704700000010024001490860CD
:10058000704700000000002070B5044600680D466A
:10059000012610F0010F42D1E9686868AA69084392
:1005A0002969114308432168254A11400843206006
:1005B000A868616821F44051014361606869A168DD
:1005C00021F440710143A1601E48844201D10320FF
:1005D00008E01D48844201D10C2003E01B488442FE
:1005E00003D13020FFF72CFF0BE01948844201D1E2
:1005F000C02004E01748844211D14FF44070FFF747
:10060000D1FE60B1296851B1AA690026B2F5004F48
:1006100007D000EB5100B0FBF1F080B2E060304653
:1006200070BD400000EB5100B0FBF1F081B24FF61D
:10063000F07201EA0200C1F342010843EEE7000054
:10064000F369FFEF003801400044004000480040DB
:10065000004C00400050004010B50420FFF7EEFDB4
:100660008020FFF7EBFDBDE810400120FFF7E6BD5D
:1006700010B58EB01C216846FFF7A9FD182107A808
:10068000FFF7A5FD304850F8881F002421F0030132
:1006900040F83C19416941F480414161416901F4EC
:1006A00080410D91016841F001010160006807A9D6
:1006B00000F001000D904FF4C060079002200890F8
:1006C0000320CDE909040720CDE90B404FF090400D
:1006D000FFF7C0FD1D480068C0F30220011D072977
:1006E00001D2002000E0C01E04FA00F10801184900
:1006F00081F80004164920202139C1F800014FF487
:10070000E130CDE900040C200294CDE903400594CA
:100710000694104C69462046FFF736FF606820F4C7
:1007200090406060A06820F02A00A060206840F03F
:1007300001002060206840F020002060206840F424
:10074000807020600EB010BD001002400CED00E083
:1007500025E000E000380140FEE7FEE770470000BA
:1007600004498968044A01F0F0010909515CC84054
:100770007047000000100240540E000804498968C8
:10078000044A01F4E06102EB11210978C840704786
:1007900000100240940E000804498968044A01F4DC
:1007A000605102EBD1210978C84070470010024027
:1007B000940E0008184810B58068184C10F00C0012
:1007C00005D004281AD008281AD00C281AD0FFF710
:1007D000BDFED8B1FFF7BAFE50B1FFF7A7FE09E0A2
:1007E000FFF7A4FE02E000BFFFF7A8FE000A02E048
:1007F000FFF7A4FE000954F8200010BD084810BD02
:10080000084810BDBDE8104000F00EB8FFF79EFE8E
:100810000028E9D0E4E7000000100240640E000860
:100820000024F40000127A0010B5FFF79FFE1D4C63
:10083000012803D002282AD003282AD0FFF786FEF9
:1008400028B1FFF783FE48B3FFF770FE06E0FFF71D
:100850007DFE00B3FFF76AFE000A00E0000954F8CD
:10086000204000BFFFF77AFE012101EB1010B4FB1E
:10087000F0F20D48C368C068C3F306235A4300F082
:10088000C06001EB50604000B2FBF0F010BD074CBF
:10089000E8E7074CE6E7FFF751FEDDE7FFF74EFE1E
:1008A000DCE70000640E0008001002400024F400A1
:1008B00000127A00704700F051BA0000274810B5C6
:1008C000016821F0070141F004010160016801F0B5
:1008D00007010429FAD12248016821F4C06141F4DA
:1008E000007101601F48016841F4803101600168B6
:1008F000C1F340410029FAD0C26841F203411A4BCA
:100900001A401143C160C16841F08071C160016843
:1009100041F0807101600168C1F340610029FAD0A3
:10092000816841F003018160816801F00C010C29AC
:10093000FAD1816821F0F0018160816821F4E061E1
:100940008160816821F460518160084C2046FFF786
:100950001CFD2046BDE81040FFF710BE00200240FD
:1009600000700040001002408C80FFF900B4C40405
:100970000B48016841F4700101600A48016841F0C8
:1009800001010160002181600268074B1A4002608A
:100990008214C260026822F4802202608161704782
:1009A00088ED00E000100240FFFFF6EA7047FEE726
:1009B0000FB4054B10B503A9044A029800F018F8CB
:1009C00010BC5DF814FB0000B10B0008040000200F
:1009D00002E008C8121F08C1002AFAD17047704708
:1009E000002001E001C1121F002AFBD17047000066
:1009F0002DE9FF4F8BB09A460F460546002606E0CC
:100A000025280BD052460D9990476D1C761C2878EE
:100A10000028F5D10FB0304600F0C6B80024A0463B
:100A20000122604900E0044315F8013F203B02FA2F
:100A300003F00842F7D128782E2817D115F8010FB6
:100A400044F004042A280ED06FF02F022878A0F179
:100A5000300109290AD808EB880102EB410100EBBB
:100A600001086D1CF2E757F8048B6D1C2878692883
:100A70003ED006DC0028CDD063280BD0642804D1FA
:100A800036E0732810D075284BD052460D99904708
:100A9000761C85E017F8040B8DF8000000208DF817
:100AA0000100E946012003E057F8049B4FF0FF30B6
:100AB00061074FF0000401D40AE0641C44450DDADC
:100AC0008442FADB19F804100029F6D106E0641C10
:100AD0008442FCDB19F804100029F8D1264404E014
:100AE00019F8010B52460D999047641EF8D257E051
:100AF00001CF4FF00A0B002802DA40422D2102E01C
:100B0000210504D52B218DF82410012103E0E107F4
:100B100005D02021F7E70DF1200908910CE0002114
:100B2000F9E701CF4FF00A0BF9E75946FFF75AFBF7
:100B300001F1300209F8012D0028F6D1ADEB0900D2
:100B400000F1200B600701D44FF00108D84502DD09
:100B5000A8EB0B0000E000208046002406E009A876
:100B60005246005D0D999047641C761C089884429B
:100B7000F5DB04E0302052460D999047761CB8F121
:100B80000001A8F10108F5DC05E019F8010B524657
:100B90000D999047761CBBF10001ABF1010BF4DC21
:100BA0006D1C34E70928010030BCBDE8C08F00008F
:100BB0000449CA69C2F38012002AFAD0C2B20A8577
:100BC000704700000038014008B53C48016E41F014
:100BD00001010166016E01F001010091816D41F09A
:100BE00080518165806D364900F080500090086822
:100BF0004FF6FF021040334A40F440701043086043
:100C00000868C0F30220C0F10702042A00D90422B8
:100C1000011D072901D2002000E0C01E01219140E2
:100C2000491E81400801284981F8140DFFF746FE4E
:100C30004FF0E020016941F002010161FFF70CFD76
:100C4000FFF716FD21A0FFF7B3FE00224FF4FA7163
:100C5000104600F0B9F8044600224FF47A710120E2
:100C600000F0B2F8054600224FF4FA61012000F0CE
:100C7000ABF80646204600F0D1F8284600F0CEF842
:100C8000304600F0CBF8204600F054F818B1214669
:100C900013A0FFF78DFE284600F04CF818B1294646
:100CA00016A0FFF785FE304600F044F80028EAD091
:100CB000314619A0FFF77CFEE5E700000010024076
:100CC0000CED00E00000FA050FE000E0496E6974E9
:100CD00020436F6D706C657465210D0A0000000083
:100CE0004E6F2E25643A2074696D6572206F6E63B5
:100CF00065207072696E7421210A00004E6F2E25E6
:100D0000643A2074696D6572206C6F6F7020707228
:100D1000696E7421210A00004E6F2E25643A2074FA
:100D2000696D65722074657374207072696E7421C8
:100D3000210A000000EB4001074800EB81004178E8
:100D40000122B2EB911F05D1417821F0C001417021
:100D500001207047002070470800002070B5194D31
:100D6000002400BF04EB440005EB8002507810F033
:100D70000C0F21D05088401C5080508891888842A8
:100D80001AD350788007507804D000F0030001286F
:100D900004D005E020F00C00507001E000205080ED
:100DA000906820B1918892682046904704E050787E
:100DB00020F0C00040305070641CE4B2102CD1D33D
:100DC00070BD00000800002030B50446124B002022
:100DD00000EB400503EB85056D78C5F30115012D8A
:100DE00013D000EB400503EB85035D7864F3010548
:100DF0005D7099809A60597821F0300110315970F6
:100E0000597821F0C001597030BD401CC0B2102883
:100E1000DED3FF2030BD000008000020102815D8C8
:100E200000EB40010A4800EB81004178C1F3011159
:100E300001290BD14178C1F38101012906D0417804
:100E400021F00C01091D41700020704701207047FE
:100E50000800002000000000000000000102030460
:100E600006070809A0860100400D0300801A06004D
:100E700000350C0040420F0080841E0000093D0038
:100E800000127A000024F40000366E010048E801E8
:100E9000006CDC020000000001020304BC0E00082C
:100EA0000000002008000000D0090008C40E00085F
:100EB00008000020C0040000E009000800093D000F
:040EC000000000002E
:040000050800018965
:00000001FF
